{
  "contractName": "Wilderland",
  "abi": [
    {
      "inputs": [],
      "stateMutability": "nonpayable",
      "type": "constructor"
    },
    {
      "inputs": [
        {
          "internalType": "uint256",
          "name": "",
          "type": "uint256"
        }
      ],
      "name": "allAttacks",
      "outputs": [
        {
          "internalType": "uint256",
          "name": "id",
          "type": "uint256"
        },
        {
          "internalType": "string",
          "name": "name",
          "type": "string"
        },
        {
          "internalType": "string",
          "name": "description",
          "type": "string"
        },
        {
          "internalType": "uint256",
          "name": "attackDamage",
          "type": "uint256"
        },
        {
          "internalType": "uint256",
          "name": "critChance",
          "type": "uint256"
        },
        {
          "internalType": "uint256",
          "name": "critDamage",
          "type": "uint256"
        },
        {
          "internalType": "uint256",
          "name": "manaCost",
          "type": "uint256"
        },
        {
          "internalType": "string",
          "name": "attackType",
          "type": "string"
        }
      ],
      "stateMutability": "view",
      "type": "function",
      "constant": true
    },
    {
      "inputs": [],
      "name": "attackCount",
      "outputs": [
        {
          "internalType": "uint256",
          "name": "",
          "type": "uint256"
        }
      ],
      "stateMutability": "view",
      "type": "function",
      "constant": true
    },
    {
      "inputs": [],
      "name": "characterCount",
      "outputs": [
        {
          "internalType": "uint256",
          "name": "",
          "type": "uint256"
        }
      ],
      "stateMutability": "view",
      "type": "function",
      "constant": true
    },
    {
      "inputs": [
        {
          "internalType": "uint256",
          "name": "",
          "type": "uint256"
        },
        {
          "internalType": "uint256",
          "name": "",
          "type": "uint256"
        }
      ],
      "name": "characterToAttack",
      "outputs": [
        {
          "internalType": "uint256",
          "name": "id",
          "type": "uint256"
        },
        {
          "internalType": "string",
          "name": "name",
          "type": "string"
        },
        {
          "internalType": "string",
          "name": "description",
          "type": "string"
        },
        {
          "internalType": "uint256",
          "name": "attackDamage",
          "type": "uint256"
        },
        {
          "internalType": "uint256",
          "name": "critChance",
          "type": "uint256"
        },
        {
          "internalType": "uint256",
          "name": "critDamage",
          "type": "uint256"
        },
        {
          "internalType": "uint256",
          "name": "manaCost",
          "type": "uint256"
        },
        {
          "internalType": "string",
          "name": "attackType",
          "type": "string"
        }
      ],
      "stateMutability": "view",
      "type": "function",
      "constant": true
    },
    {
      "inputs": [
        {
          "internalType": "uint256",
          "name": "",
          "type": "uint256"
        }
      ],
      "name": "characterToOwner",
      "outputs": [
        {
          "internalType": "address",
          "name": "",
          "type": "address"
        }
      ],
      "stateMutability": "view",
      "type": "function",
      "constant": true
    },
    {
      "inputs": [
        {
          "internalType": "uint256",
          "name": "",
          "type": "uint256"
        }
      ],
      "name": "characters",
      "outputs": [
        {
          "internalType": "address",
          "name": "owner",
          "type": "address"
        },
        {
          "internalType": "string",
          "name": "name",
          "type": "string"
        },
        {
          "internalType": "string",
          "name": "build",
          "type": "string"
        },
        {
          "internalType": "uint256",
          "name": "level",
          "type": "uint256"
        },
        {
          "internalType": "uint256",
          "name": "hp",
          "type": "uint256"
        },
        {
          "internalType": "uint256",
          "name": "speed",
          "type": "uint256"
        },
        {
          "internalType": "uint256",
          "name": "xp",
          "type": "uint256"
        },
        {
          "internalType": "uint256",
          "name": "mana",
          "type": "uint256"
        },
        {
          "internalType": "uint256",
          "name": "manaRegen",
          "type": "uint256"
        },
        {
          "internalType": "uint256",
          "name": "baseId",
          "type": "uint256"
        }
      ],
      "stateMutability": "view",
      "type": "function",
      "constant": true
    },
    {
      "inputs": [],
      "name": "memberCount",
      "outputs": [
        {
          "internalType": "uint256",
          "name": "",
          "type": "uint256"
        }
      ],
      "stateMutability": "view",
      "type": "function",
      "constant": true
    },
    {
      "inputs": [],
      "name": "name",
      "outputs": [
        {
          "internalType": "string",
          "name": "",
          "type": "string"
        }
      ],
      "stateMutability": "view",
      "type": "function",
      "constant": true
    },
    {
      "inputs": [
        {
          "internalType": "address",
          "name": "",
          "type": "address"
        },
        {
          "internalType": "uint256",
          "name": "",
          "type": "uint256"
        }
      ],
      "name": "ownerCharacterIds",
      "outputs": [
        {
          "internalType": "uint256",
          "name": "",
          "type": "uint256"
        }
      ],
      "stateMutability": "view",
      "type": "function",
      "constant": true
    },
    {
      "inputs": [],
      "name": "uniqueCharacters",
      "outputs": [
        {
          "internalType": "uint256",
          "name": "",
          "type": "uint256"
        }
      ],
      "stateMutability": "view",
      "type": "function",
      "constant": true
    },
    {
      "inputs": [],
      "name": "isOwner",
      "outputs": [
        {
          "internalType": "bool",
          "name": "",
          "type": "bool"
        }
      ],
      "stateMutability": "view",
      "type": "function",
      "constant": true
    },
    {
      "inputs": [],
      "name": "createStarters",
      "outputs": [],
      "stateMutability": "nonpayable",
      "type": "function"
    },
    {
      "inputs": [
        {
          "internalType": "string",
          "name": "_name",
          "type": "string"
        },
        {
          "internalType": "string",
          "name": "_build",
          "type": "string"
        },
        {
          "internalType": "uint256",
          "name": "_level",
          "type": "uint256"
        },
        {
          "internalType": "uint256",
          "name": "_hp",
          "type": "uint256"
        },
        {
          "internalType": "uint256",
          "name": "_speed",
          "type": "uint256"
        },
        {
          "internalType": "uint256",
          "name": "_xp",
          "type": "uint256"
        },
        {
          "internalType": "uint256",
          "name": "_mana",
          "type": "uint256"
        },
        {
          "internalType": "uint256",
          "name": "_manaRegen",
          "type": "uint256"
        },
        {
          "internalType": "uint256",
          "name": "_baseId",
          "type": "uint256"
        }
      ],
      "name": "createStartingCharacter",
      "outputs": [],
      "stateMutability": "nonpayable",
      "type": "function"
    },
    {
      "inputs": [],
      "name": "createStartingAttacks",
      "outputs": [],
      "stateMutability": "nonpayable",
      "type": "function"
    },
    {
      "inputs": [],
      "name": "assignStartingAttacks",
      "outputs": [],
      "stateMutability": "nonpayable",
      "type": "function"
    },
    {
      "inputs": [
        {
          "internalType": "uint256",
          "name": "_id",
          "type": "uint256"
        },
        {
          "internalType": "string",
          "name": "_name",
          "type": "string"
        },
        {
          "internalType": "string",
          "name": "_description",
          "type": "string"
        },
        {
          "internalType": "uint256",
          "name": "_damage",
          "type": "uint256"
        },
        {
          "internalType": "uint256",
          "name": "_critChance",
          "type": "uint256"
        },
        {
          "internalType": "uint256",
          "name": "_critDamage",
          "type": "uint256"
        },
        {
          "internalType": "uint256",
          "name": "_manaCost",
          "type": "uint256"
        },
        {
          "internalType": "string",
          "name": "_type",
          "type": "string"
        }
      ],
      "name": "createAttack",
      "outputs": [],
      "stateMutability": "nonpayable",
      "type": "function"
    },
    {
      "inputs": [
        {
          "internalType": "uint256",
          "name": "_number",
          "type": "uint256"
        }
      ],
      "name": "createCharacter",
      "outputs": [],
      "stateMutability": "nonpayable",
      "type": "function"
    },
    {
      "inputs": [
        {
          "internalType": "uint256",
          "name": "_characterId",
          "type": "uint256"
        },
        {
          "internalType": "uint256",
          "name": "_attackId",
          "type": "uint256"
        }
      ],
      "name": "assignCharacterAttack",
      "outputs": [],
      "stateMutability": "nonpayable",
      "type": "function"
    },
    {
      "inputs": [
        {
          "internalType": "uint256",
          "name": "_id",
          "type": "uint256"
        }
      ],
      "name": "playerWins",
      "outputs": [],
      "stateMutability": "nonpayable",
      "type": "function"
    }
  ],
  "bytecode": "0x60806040526040518060400160405280600a81526020017f57696c6465726c616e64000000000000000000000000000000000000000000008152506000908051906020019062000051929190620000be565b506000600355600060045560016005553480156200006e57600080fd5b5033600660006101000a81548173ffffffffffffffffffffffffffffffffffffffff021916908373ffffffffffffffffffffffffffffffffffffffff1602179055506000600281905550620001d3565b828054620000cc906200016e565b90600052602060002090601f016020900481019282620000f057600085556200013c565b82601f106200010b57805160ff19168380011785556200013c565b828001600101855582156200013c579182015b828111156200013b5782518255916020019190600101906200011e565b5b5090506200014b91906200014f565b5090565b5b808211156200016a57600081600090555060010162000150565b5090565b600060028204905060018216806200018757607f821691505b602082108114156200019e576200019d620001a4565b5b50919050565b7f4e487b7100000000000000000000000000000000000000000000000000000000600052602260045260246000fd5b61253780620001e36000396000f3fe608060405234801561001057600080fd5b50600436106101215760003560e01c8063505f0177116100ad578063aef38bd411610071578063aef38bd4146102eb578063c3fbc8c914610307578063ce4c509914610337578063e66c883d14610353578063fbdbd7a71461036f57610121565b8063505f01771461026657806384596e69146102825780638514e1f4146102b95780638f32d59b146102c3578063a6d9e3ee146102e157610121565b80633c5c7363116100f45780633c5c7363146101b0578063407c2821146101ba5780634532b7cf146101d8578063463581d7146101f65780634810bc591461022d57610121565b806306fdde031461012657806311aee3801461014457806319e7ce8b146101625780633b16035014610192575b600080fd5b61012e61038b565b60405161013b919061210a565b60405180910390f35b61014c610419565b604051610159919061212c565b60405180910390f35b61017c60048036038101906101779190611e65565b61041f565b604051610189919061202a565b60405180910390f35b61019a610452565b6040516101a7919061212c565b60405180910390f35b6101b8610458565b005b6101c261049a565b6040516101cf919061212c565b60405180910390f35b6101e06104a0565b6040516101ed919061212c565b60405180910390f35b610210600480360381019061020b9190611f88565b6104a6565b604051610224989796959493929190612147565b60405180910390f35b61024760048036038101906102429190611e65565b6106a3565b60405161025d9a99989796959493929190612045565b60405180910390f35b610280600480360381019061027b9190611d6f565b610837565b005b61029c60048036038101906102979190611e65565b610aed565b6040516102b0989796959493929190612147565b60405180910390f35b6102c1610cdd565b005b6102cb610f4b565b6040516102d891906120ef565b60405180910390f35b6102e9610fa3565b005b61030560048036038101906103009190611e65565b611245565b005b610321600480360381019061031c9190611d33565b6116a9565b60405161032e919061212c565b60405180910390f35b610351600480360381019061034c9190611e65565b6116da565b005b61036d60048036038101906103689190611e8e565b61175d565b005b61038960048036038101906103849190611f88565b611880565b005b6000805461039890612337565b80601f01602080910402602001604051908101604052809291908181526020018280546103c490612337565b80156104115780601f106103e657610100808354040283529160200191610411565b820191906000526020600020905b8154815290600101906020018083116103f457829003601f168201915b505050505081565b60045481565b60096020528060005260406000206000915054906101000a900473ffffffffffffffffffffffffffffffffffffffff1681565b60025481565b610460610f4b565b61046957600080fd5b610474600080611880565b61048060006001611880565b61048c60006002611880565b61049860006003611880565b565b60035481565b60015481565b600b60205281600052604060002081815481106104c257600080fd5b9060005260206000209060080201600091509150508060000154908060010180546104ec90612337565b80601f016020809104026020016040519081016040528092919081815260200182805461051890612337565b80156105655780601f1061053a57610100808354040283529160200191610565565b820191906000526020600020905b81548152906001019060200180831161054857829003601f168201915b50505050509080600201805461057a90612337565b80601f01602080910402602001604051908101604052809291908181526020018280546105a690612337565b80156105f35780601f106105c8576101008083540402835291602001916105f3565b820191906000526020600020905b8154815290600101906020018083116105d657829003601f168201915b50505050509080600301549080600401549080600501549080600601549080600701805461062090612337565b80601f016020809104026020016040519081016040528092919081815260200182805461064c90612337565b80156106995780601f1061066e57610100808354040283529160200191610699565b820191906000526020600020905b81548152906001019060200180831161067c57829003601f168201915b5050505050905088565b600881815481106106b357600080fd5b90600052602060002090600a02016000915090508060000160009054906101000a900473ffffffffffffffffffffffffffffffffffffffff16908060010180546106fc90612337565b80601f016020809104026020016040519081016040528092919081815260200182805461072890612337565b80156107755780601f1061074a57610100808354040283529160200191610775565b820191906000526020600020905b81548152906001019060200180831161075857829003601f168201915b50505050509080600201805461078a90612337565b80601f01602080910402602001604051908101604052809291908181526020018280546107b690612337565b80156108035780601f106107d857610100808354040283529160200191610803565b820191906000526020600020905b8154815290600101906020018083116107e657829003601f168201915b505050505090806003015490806004015490806005015490806006015490806007015490806008015490806009015490508a565b61083f610f4b565b61084857600080fd5b60086040518061014001604052803373ffffffffffffffffffffffffffffffffffffffff1681526020018b81526020018a81526020018981526020018881526020018781526020018681526020018581526020018481526020018381525090806001815401808255809150506001900390600052602060002090600a020160009091909190915060008201518160000160006101000a81548173ffffffffffffffffffffffffffffffffffffffff021916908373ffffffffffffffffffffffffffffffffffffffff1602179055506020820151816001019080519060200190610932929190611bfe565b50604082015181600201908051906020019061094f929190611bfe565b50606082015181600301556080820151816004015560a0820151816005015560c0820151816006015560e0820151816007015561010082015181600801556101208201518160090155505060006008805490509050336009600083815260200190815260200160002060006101000a81548173ffffffffffffffffffffffffffffffffffffffff021916908373ffffffffffffffffffffffffffffffffffffffff160217905550600a60003373ffffffffffffffffffffffffffffffffffffffff1673ffffffffffffffffffffffffffffffffffffffff1681526020019081526020016000206000815480929190610a4690612369565b9190505550600c60003373ffffffffffffffffffffffffffffffffffffffff1673ffffffffffffffffffffffffffffffffffffffff16815260200190815260200160002081908060018154018082558091505060019003906000526020600020016000909190919091505560026000815480929190610ac490612369565b919050555060016000815480929190610adc90612369565b919050555050505050505050505050565b60078181548110610afd57600080fd5b9060005260206000209060080201600091509050806000015490806001018054610b2690612337565b80601f0160208091040260200160405190810160405280929190818152602001828054610b5290612337565b8015610b9f5780601f10610b7457610100808354040283529160200191610b9f565b820191906000526020600020905b815481529060010190602001808311610b8257829003601f168201915b505050505090806002018054610bb490612337565b80601f0160208091040260200160405190810160405280929190818152602001828054610be090612337565b8015610c2d5780601f10610c0257610100808354040283529160200191610c2d565b820191906000526020600020905b815481529060010190602001808311610c1057829003601f168201915b505050505090806003015490806004015490806005015490806006015490806007018054610c5a90612337565b80601f0160208091040260200160405190810160405280929190818152602001828054610c8690612337565b8015610cd35780601f10610ca857610100808354040283529160200191610cd3565b820191906000526020600020905b815481529060010190602001808311610cb657829003601f168201915b5050505050905088565b610ce5610f4b565b610cee57600080fd5b610d8560006040518060400160405280600581526020017f536c61736800000000000000000000000000000000000000000000000000000081525060405180606001604052806022815260200161247f6022913960236019603260196040518060400160405280600681526020017f4e6f726d616c000000000000000000000000000000000000000000000000000081525061175d565b610e1b60016040518060400160405280600481526020017f526f6172000000000000000000000000000000000000000000000000000000008152506040518060600160405280603781526020016124a16037913960236032601e806040518060400160405280600b81526020017f4d616e612044616d61676500000000000000000000000000000000000000000081525061175d565b610eb260026040518060400160405280600681526020017f43686172676500000000000000000000000000000000000000000000000000008152506040518060600160405280603781526020016124a16037913960326005601960286040518060400160405280600681526020017f4e6f726d616c000000000000000000000000000000000000000000000000000081525061175d565b610f4960036040518060400160405280600b81526020017f536869656c642057616c6c0000000000000000000000000000000000000000008152506040518060600160405280602a81526020016124d8602a91396019604b600360326040518060400160405280600781526020017f4465666c6563740000000000000000000000000000000000000000000000000081525061175d565b565b6000600660009054906101000a900473ffffffffffffffffffffffffffffffffffffffff1673ffffffffffffffffffffffffffffffffffffffff163373ffffffffffffffffffffffffffffffffffffffff1614905090565b610fab610f4b565b610fb457600080fd5b6110376040518060400160405280600581526020017f5472756e6b0000000000000000000000000000000000000000000000000000008152506040518060400160405280600581526020017f426561737400000000000000000000000000000000000000000000000000000081525060016101f46028600060a0600f6001610837565b6110ba6040518060400160405280600681526020017f44656562657200000000000000000000000000000000000000000000000000008152506040518060400160405280600881526020017f4461726b6c696e6700000000000000000000000000000000000000000000000081525060016101456041600060fa60196002610837565b61113d6040518060400160405280600681526020017f43726f636f7a00000000000000000000000000000000000000000000000000008152506040518060400160405280600981526020017f4c697a6172646d616e00000000000000000000000000000000000000000000008152506001610177604b600060e160146003610837565b6111c06040518060400160405280600581526020017f436f6272610000000000000000000000000000000000000000000000000000008152506040518060400160405280600781526020017f4d6f6e7374657200000000000000000000000000000000000000000000000000815250600161015e6046600060c8601e6004610837565b6112436040518060400160405280600581526020017f48616e61720000000000000000000000000000000000000000000000000000008152506040518060400160405280600881526020017f57696c646c696e6700000000000000000000000000000000000000000000000081525060016101a96037600060c360146005610837565b565b6000600a60003373ffffffffffffffffffffffffffffffffffffffff1673ffffffffffffffffffffffffffffffffffffffff1681526020019081526020016000205414156112a657600460008154809291906112a090612369565b91905055505b6000600882815481106112e2577f4e487b7100000000000000000000000000000000000000000000000000000000600052603260045260246000fd5b90600052602060002090600a0201905060086040518061014001604052803373ffffffffffffffffffffffffffffffffffffffff16815260200183600101805461132b90612337565b80601f016020809104026020016040519081016040528092919081815260200182805461135790612337565b80156113a45780601f10611379576101008083540402835291602001916113a4565b820191906000526020600020905b81548152906001019060200180831161138757829003601f168201915b505050505081526020018360020180546113bd90612337565b80601f01602080910402602001604051908101604052809291908181526020018280546113e990612337565b80156114365780601f1061140b57610100808354040283529160200191611436565b820191906000526020600020905b81548152906001019060200180831161141957829003601f168201915b50505050508152602001600181526020018360040154815260200183600501548152602001836006015481526020018360070154815260200183600801548152602001836009015481525090806001815401808255809150506001900390600052602060002090600a020160009091909190915060008201518160000160006101000a81548173ffffffffffffffffffffffffffffffffffffffff021916908373ffffffffffffffffffffffffffffffffffffffff160217905550602082015181600101908051906020019061150d929190611bfe565b50604082015181600201908051906020019061152a929190611bfe565b50606082015181600301556080820151816004015560a0820151816005015560c0820151816006015560e0820151816007015561010082015181600801556101208201518160090155505060006008805490509050336009600083815260200190815260200160002060006101000a81548173ffffffffffffffffffffffffffffffffffffffff021916908373ffffffffffffffffffffffffffffffffffffffff160217905550600a60003373ffffffffffffffffffffffffffffffffffffffff1673ffffffffffffffffffffffffffffffffffffffff168152602001908152602001600020600081548092919061162190612369565b9190505550600c60003373ffffffffffffffffffffffffffffffffffffffff1673ffffffffffffffffffffffffffffffffffffffff1681526020019081526020016000208190806001815401808255809150506001900390600052602060002001600090919091909150556002600081548092919061169f90612369565b9190505550505050565b600c60205281600052604060002081815481106116c557600080fd5b90600052602060002001600091509150505481565b600060088281548110611716577f4e487b7100000000000000000000000000000000000000000000000000000000600052603260045260246000fd5b90600052602060002090600a02019050601e81600601600082825461173b9190612257565b925050819055506064816006015411156117595761175882611b8a565b5b5050565b611765610f4b565b61176e57600080fd5b60076040518061010001604052808a81526020018981526020018881526020018781526020018681526020018581526020018481526020018381525090806001815401808255809150506001900390600052602060002090600802016000909190919091506000820151816000015560208201518160010190805190602001906117f9929190611bfe565b506040820151816002019080519060200190611816929190611bfe565b50606082015181600301556080820151816004015560a0820151816005015560c0820151816006015560e082015181600701908051906020019061185b929190611bfe565b5050506003600081548092919061187190612369565b91905055505050505050505050565b6000600782815481106118bc577f4e487b7100000000000000000000000000000000000000000000000000000000600052603260045260246000fd5b90600052602060002090600802019050600b60008481526020019081526020016000206040518061010001604052808360000154815260200183600101805461190490612337565b80601f016020809104026020016040519081016040528092919081815260200182805461193090612337565b801561197d5780601f106119525761010080835404028352916020019161197d565b820191906000526020600020905b81548152906001019060200180831161196057829003601f168201915b5050505050815260200183600201805461199690612337565b80601f01602080910402602001604051908101604052809291908181526020018280546119c290612337565b8015611a0f5780601f106119e457610100808354040283529160200191611a0f565b820191906000526020600020905b8154815290600101906020018083116119f257829003601f168201915b5050505050815260200183600301548152602001836004015481526020018360050154815260200183600601548152602001836007018054611a5090612337565b80601f0160208091040260200160405190810160405280929190818152602001828054611a7c90612337565b8015611ac95780601f10611a9e57610100808354040283529160200191611ac9565b820191906000526020600020905b815481529060010190602001808311611aac57829003601f168201915b50505050508152509080600181540180825580915050600190039060005260206000209060080201600090919091909150600082015181600001556020820151816001019080519060200190611b20929190611bfe565b506040820151816002019080519060200190611b3d929190611bfe565b50606082015181600301556080820151816004015560a0820151816005015560c0820151816006015560e0820151816007019080519060200190611b82929190611bfe565b505050505050565b600060088281548110611bc6577f4e487b7100000000000000000000000000000000000000000000000000000000600052603260045260246000fd5b90600052602060002090600a02019050806003016000815480929190611beb90612369565b9190505550600081600601819055505050565b828054611c0a90612337565b90600052602060002090601f016020900481019282611c2c5760008555611c73565b82601f10611c4557805160ff1916838001178555611c73565b82800160010185558215611c73579182015b82811115611c72578251825591602001919060010190611c57565b5b509050611c809190611c84565b5090565b5b80821115611c9d576000816000905550600101611c85565b5090565b6000611cb4611caf8461220b565b6121da565b905082815260208101848484011115611ccc57600080fd5b611cd78482856122f5565b509392505050565b600081359050611cee81612450565b92915050565b600082601f830112611d0557600080fd5b8135611d15848260208601611ca1565b91505092915050565b600081359050611d2d81612467565b92915050565b60008060408385031215611d4657600080fd5b6000611d5485828601611cdf565b9250506020611d6585828601611d1e565b9150509250929050565b60008060008060008060008060006101208a8c031215611d8e57600080fd5b60008a013567ffffffffffffffff811115611da857600080fd5b611db48c828d01611cf4565b99505060208a013567ffffffffffffffff811115611dd157600080fd5b611ddd8c828d01611cf4565b9850506040611dee8c828d01611d1e565b9750506060611dff8c828d01611d1e565b9650506080611e108c828d01611d1e565b95505060a0611e218c828d01611d1e565b94505060c0611e328c828d01611d1e565b93505060e0611e438c828d01611d1e565b925050610100611e558c828d01611d1e565b9150509295985092959850929598565b600060208284031215611e7757600080fd5b6000611e8584828501611d1e565b91505092915050565b600080600080600080600080610100898b031215611eab57600080fd5b6000611eb98b828c01611d1e565b985050602089013567ffffffffffffffff811115611ed657600080fd5b611ee28b828c01611cf4565b975050604089013567ffffffffffffffff811115611eff57600080fd5b611f0b8b828c01611cf4565b9650506060611f1c8b828c01611d1e565b9550506080611f2d8b828c01611d1e565b94505060a0611f3e8b828c01611d1e565b93505060c0611f4f8b828c01611d1e565b92505060e089013567ffffffffffffffff811115611f6c57600080fd5b611f788b828c01611cf4565b9150509295985092959890939650565b60008060408385031215611f9b57600080fd5b6000611fa985828601611d1e565b9250506020611fba85828601611d1e565b9150509250929050565b611fcd816122ad565b82525050565b611fdc816122bf565b82525050565b6000611fed8261223b565b611ff78185612246565b9350612007818560208601612304565b6120108161243f565b840191505092915050565b612024816122eb565b82525050565b600060208201905061203f6000830184611fc4565b92915050565b60006101408201905061205b600083018d611fc4565b818103602083015261206d818c611fe2565b90508181036040830152612081818b611fe2565b9050612090606083018a61201b565b61209d608083018961201b565b6120aa60a083018861201b565b6120b760c083018761201b565b6120c460e083018661201b565b6120d261010083018561201b565b6120e061012083018461201b565b9b9a5050505050505050505050565b60006020820190506121046000830184611fd3565b92915050565b600060208201905081810360008301526121248184611fe2565b905092915050565b6000602082019050612141600083018461201b565b92915050565b60006101008201905061215d600083018b61201b565b818103602083015261216f818a611fe2565b905081810360408301526121838189611fe2565b9050612192606083018861201b565b61219f608083018761201b565b6121ac60a083018661201b565b6121b960c083018561201b565b81810360e08301526121cb8184611fe2565b90509998505050505050505050565b6000604051905081810181811067ffffffffffffffff8211171561220157612200612410565b5b8060405250919050565b600067ffffffffffffffff82111561222657612225612410565b5b601f19601f8301169050602081019050919050565b600081519050919050565b600082825260208201905092915050565b6000612262826122eb565b915061226d836122eb565b9250827fffffffffffffffffffffffffffffffffffffffffffffffffffffffffffffffff038211156122a2576122a16123b2565b5b828201905092915050565b60006122b8826122cb565b9050919050565b60008115159050919050565b600073ffffffffffffffffffffffffffffffffffffffff82169050919050565b6000819050919050565b82818337600083830152505050565b60005b83811015612322578082015181840152602081019050612307565b83811115612331576000848401525b50505050565b6000600282049050600182168061234f57607f821691505b60208210811415612363576123626123e1565b5b50919050565b6000612374826122eb565b91507fffffffffffffffffffffffffffffffffffffffffffffffffffffffffffffffff8214156123a7576123a66123b2565b5b600182019050919050565b7f4e487b7100000000000000000000000000000000000000000000000000000000600052601160045260246000fd5b7f4e487b7100000000000000000000000000000000000000000000000000000000600052602260045260246000fd5b7f4e487b7100000000000000000000000000000000000000000000000000000000600052604160045260246000fd5b6000601f19601f8301169050919050565b612459816122ad565b811461246457600080fd5b50565b612470816122eb565b811461247b57600080fd5b5056fe446561646c792061747461636b20746f2064656365697665206f70706f6e656e747342656c74696e6720726f617220746f20737472696b65206665617220696e746f20746865206865617274206f66206f70706f6e656e74734772696e20616e64206265617220626568696e642074686520736869656c6420746f20686f6c64206f6ea26469706673582212204e8f3e7acfebc913e51131f08d6a2b2a87ec89efba4c5ac92aa5c6690752000664736f6c63430008000033",
  "immutableReferences": {},
  "source": "// SPDX-License-Identifier: MIT\r\n\r\npragma solidity ^0.8.0;\r\n\r\ncontract Wilderland {\r\n  string public name = 'Wilderland';\r\n  uint public uniqueCharacters;\r\n  uint public characterCount;\r\n  uint public attackCount = 0;\r\n  uint public memberCount = 0;\r\n  uint nonce = 1;\r\n  address _owner;\r\n\r\n  struct Character {\r\n    address owner;\r\n    string name;\r\n    string build;\r\n    uint level;\r\n    uint hp; // Used in fights\r\n    uint speed; // Used in fights\r\n    uint xp;\r\n    uint mana;\r\n    uint manaRegen;\r\n    uint baseId;\r\n  }\r\n\r\n  struct Attacks {\r\n      uint id;\r\n      string name;\r\n      string description;\r\n      uint attackDamage;\r\n      uint critChance;\r\n      uint critDamage;\r\n      uint manaCost;\r\n      string attackType;\r\n  }\r\n\r\n  Attacks[] public allAttacks;\r\n  Character[] public characters;\r\n  mapping(uint => address) public characterToOwner; // Maps character to owner\r\n  mapping(address => uint) ownerCharacterCount; // Counts owner characters\r\n  mapping(uint => Attacks[]) public characterToAttack;\r\n  mapping(address => uint[]) public ownerCharacterIds; // Maps owner to array or character ids\r\n\r\n  function isOwner() public view returns(bool) {\r\n    return msg.sender == _owner;\r\n  }\r\n\r\n  modifier onlyOwner() {\r\n    require(isOwner());\r\n    _;\r\n  }\r\n\r\n  constructor() {\r\n    _owner = msg.sender;\r\n    characterCount = 0;\r\n  }\r\n\r\n  function createStarters() external onlyOwner {\r\n      createStartingCharacter('Trunk', 'Beast', 1, 500, 40, 0, 160, 15, 1);\r\n      createStartingCharacter('Deeber', 'Darkling', 1, 325, 65, 0, 250, 25, 2);\r\n      createStartingCharacter('Crocoz', 'Lizardman', 1, 375, 75, 0, 225, 20, 3);\r\n      createStartingCharacter('Cobra', 'Monster', 1, 350, 70, 0, 200, 30, 4);\r\n      createStartingCharacter('Hanar', 'Wildling', 1, 425, 55, 0, 195, 20, 5);\r\n  }\r\n\r\n  function createStartingCharacter(string memory _name, string memory _build, uint _level, uint _hp, uint _speed, uint _xp, uint _mana, uint _manaRegen, uint _baseId) public onlyOwner {\r\n    characters.push(Character(msg.sender, _name, _build, _level, _hp, _speed, _xp, _mana, _manaRegen, _baseId));\r\n    uint id = characters.length;\r\n    characterToOwner[id] = msg.sender;\r\n    ownerCharacterCount[msg.sender]++;\r\n    ownerCharacterIds[msg.sender].push(id);\r\n    characterCount++;\r\n    uniqueCharacters++;\r\n  }\r\n\r\n  function createStartingAttacks() public onlyOwner {\r\n    createAttack(0, 'Slash', 'Deadly attack to deceive opponents', 35, 25, 50, 25, 'Normal');\r\n    createAttack(1, 'Roar', 'Belting roar to strike fear into the heart of opponents', 35, 50, 30, 30, 'Mana Damage');\r\n    createAttack(2, 'Charge', 'Belting roar to strike fear into the heart of opponents', 50, 5, 25, 40, 'Normal');\r\n    createAttack(3, 'Shield Wall', 'Grin and bear behind the shield to hold on', 25, 75, 3, 50, 'Deflect');\r\n  }\r\n\r\n  function assignStartingAttacks() public onlyOwner {\r\n    assignCharacterAttack(0,0);\r\n    assignCharacterAttack(0, 1);\r\n    assignCharacterAttack(0,2);\r\n    assignCharacterAttack(0,3);\r\n  }\r\n\r\n  function createAttack(uint _id, string memory _name, string memory _description, uint _damage, uint _critChance, uint _critDamage, uint _manaCost, string memory _type) public onlyOwner {\r\n      allAttacks.push(Attacks(_id, _name, _description, _damage, _critChance, _critDamage, _manaCost, _type));\r\n      attackCount++;\r\n  }\r\n\r\n  function createCharacter(uint _number) public {\r\n    if(ownerCharacterCount[msg.sender] == 0) {\r\n      memberCount++;\r\n    }\r\n    Character storage newCharacter = characters[_number]; \r\n    characters.push(Character(msg.sender, newCharacter.name, newCharacter.build, 1, newCharacter.hp, newCharacter.speed, newCharacter.xp, newCharacter.mana, newCharacter.manaRegen, newCharacter.baseId));\r\n    uint id = characters.length;\r\n    characterToOwner[id] = msg.sender;\r\n    ownerCharacterCount[msg.sender]++;\r\n    ownerCharacterIds[msg.sender].push(id);\r\n    characterCount++;\r\n  }\r\n\r\n  function assignCharacterAttack(uint _characterId, uint _attackId) public {\r\n    Attacks storage attack = allAttacks[_attackId];\r\n    characterToAttack[_characterId].push(Attacks(attack.id, attack.name, attack.description, attack.attackDamage, attack.critChance, attack.critDamage, attack.manaCost, attack.attackType));\r\n  }\r\n\r\n    function playerWins(uint _id) public {\r\n        Character storage myCharacter = characters[_id];\r\n        myCharacter.xp += 30;\r\n        if (myCharacter.xp > 100) {\r\n            levelUp(_id);\r\n        }\r\n    }\r\n\r\n    function levelUp(uint _id) internal {\r\n        Character storage myCharacter = characters[_id];\r\n        myCharacter.level++;\r\n        myCharacter.xp = 0;\r\n    }\r\n\r\n}",
  "sourcePath": "C:\\Users\\James\\wilderland\\src\\contracts\\Wilderland.sol",
  "compiler": {
    "name": "solc",
    "version": "0.8.0+commit.c7dfd78e.Emscripten.clang"
  },
  "schemaVersion": "3.4.4",
  "updatedAt": "2022-03-15T09:45:54.987Z",
  "networkType": "ethereum",
  "devdoc": {
    "kind": "dev",
    "methods": {},
    "version": 1
  },
  "userdoc": {
    "kind": "user",
    "methods": {},
    "version": 1
  }
}